:020000040800F2
:100000008806002035020008431D00083F1D000837
:10001000411D0008C91A000855270008000000000B
:10002000000000000000000000000000C1210008E6
:10003000411C000800000000DB20000881230008AC
:100040004F0200084F0200084F0200084F0200084C
:100050004F0200084F0200084F0200084F0200083C
:100060004F0200084F0200084F0200084F0200082C
:100070004F0200084F0200084F0200084F0200081C
:100080004F0200084F0200084F0200084F0200080C
:100090004F0200084F0200084F0200084F020008FC
:1000A0004F0200084F0200084F0200084F020008EC
:1000B000D52300084F0200084F0200084F02000835
:1000C0004F0200084F0200084F0200084F020008CC
:1000D0004F020008AD2500084F0200084F0200083B
:1000E0004F0200084F0200084F02000800F002F81B
:1000F00000F090F80AA090E8000C82448344AAF132
:100100000107DA4501D100F085F8AFF2090EBAE82F
:100110000F0013F0010F18BFFB1A43F0010318473B
:10012000702E0000902E0000103A24BF78C878C1CD
:10013000FAD8520724BF30C830C144BF04680C60ED
:10014000704700000023002400250026103A28BF35
:1001500078C1FBD8520728BF30C148BF0B60704739
:100160006E2900F03B81702900F07D82662902F043
:100170009583652902F09283672902F08F836129B4
:1001800002F08E8303681B0A28BF41F080016929B1
:1001900000F0E880642900F0E580752900F0E28035
:1001A0006F2900F00B82782900F04982E92900F0DC
:1001B000A581E42900F0A281F52900F09F81EF29B3
:1001C00000F00882F82900F048820368DB0928BFA4
:1001D00041F08001632900F04987732900F04E87C0
:1001E000E32900F05987F32900F05E87002070476B
:1001F0001FB500F0ABFF04000020002102F038FB27
:10020000401C60600020002102F01CFBE0601FBD6C
:1002100010B510BD00F06CFF1146FFF7E9FF02F0CA
:10022000B5FA01F045F803B4FFF7F2FF03BC01F0A3
:1002300089F800000948804709480047FEE7FEE7C3
:10024000FEE7FEE7FEE7FEE7FEE7FEE7FEE7FEE786
:1002500004480549054A064B7047000085230008FD
:10026000ED00000888000020880600208802002099
:10027000880200201CB50C46064B7B446946009062
:10028000204600F0C4F804460020694600F0D2F889
:1002900020461CBDB701000070477047704770B51D
:1002A000044685690068C10601D5302600E0202695
:1002B000C00707D070BDD4E9012130469047206ABD
:1002C000401C20626D1EF6D570BD70B50446856970
:1002D0000078C00707D170BDD4E9012120209047E4
:1002E000206A401C20626D1EF6D570BD09684A0563
:1002F00001D540B27047C905FCD500B27047096806
:100300004A0501D5C0B27047C905FCD580B2704717
:1003100070B50C460546012A05D02878800600D520
:10032000EA69002302E0012305E05B1C934202D24C
:10033000E05C0028F9D1A869E618C01AA861286A0B
:10034000184428622846FFF7AAFF04E0D5E90121F6
:1003500014F8010B9047B442F8D32846FFF7B5FFD5
:1003600070BD00002DE9F041064600241068752993
:10037000314616A510D0FFF7B9FF002802DA404237
:1003800013A507E031688A0701D512A502E04907E5
:1003900004D511A5012401E0FFF7B1FF00210A22D5
:1003A00006F1240709E0B0FBF2FCB0FBF2F302FB1C
:1003B0001C00303078541846491C0028F3D12346DD
:1003C0002A463046BDE8F04100F061BA0000000066
:1003D0002D0000002B0000002000000011680268C2
:1003E000006A530501D508700AE0D30501D50880DD
:1003F00006E0130603D5C217C1E9000200E0086059
:100400000120704701694A1C02610878704700B5F5
:100410008FB0CDE901310021059105497944CDE93D
:1004200003101146684600F029F90FB000BD000026
:10043000E5FFFFFF0A6802F8010B0A607047000041
:100440002DE9FF5F15468A460446DFF8AC80F84484
:100450000027D8E900103E46CDE9001010E03AF838
:1004600016106A4602A800F023FE411C07D021782E
:10047000890603D5E269391891420DD80744761CE4
:100480002078800602D5E069B84205DDAE42E6DBA1
:100490003AF816000028E2D1A069C01BA0612046EE
:1004A000FFF7FDFED8E90010CDE90010002017E0AD
:1004B0003AF818106A4602A800F0FAFDB0F1FF3FC2
:1004C00081460BD000250DF1080B05E0D4E9012190
:1004D0001BF8050090476D1C4D45F7D308F101004E
:1004E000B0428046E4DB206A384420622046FFF7B1
:1004F000ECFEBDE8FF9F0000422A00002DE9F0411C
:100500008046D21D22F007020025D2E90002F5291B
:1005100015A614D0011E72F1000106DA0023D0EBFB
:10052000030063EB020211A608E0D8F800108B0765
:1005300001D50FA602E0490701D50EA601251146F7
:10054000002408F1240704E000F05CF930323A5549
:10055000641C50EA0102F7D12B4632462146404640
:10056000BDE8F04100F093B9000000002D0000004C
:100570002B0000002000000030B4002100F1240412
:1005800008E002F00705D208303542EA4372DB0882
:100590006554491C52EA0305F3D10468002310A2F4
:1005A000250708D504F020040C4304D0C4690123B6
:1005B0000CA2641EC46130BC00F069B910B50446D9
:1005C00021461068FFF79BFE02462046BDE810401A
:1005D0000023D1E7D21D22F00701D1E90023CBE7A8
:1005E0000000000030000000F0B40D46018809054D
:1005F00002D5214C7C4402E01F4C7C440E34002187
:1006000000F1240608E002F00F071209E75D42EA54
:1006100003721B097754491C52EA0307F3D102788D
:100620000023120704D5702D06D009B1022311341E
:100630002246F0BC00F02BB901231034F8E770B566
:1006400004460D4621461068FFF759FE024629462A
:100650002046BDE870400023C6E7D21D22F0070304
:10066000D3E90023C0E70368126843F02003036066
:100670000823C3610023B7E7A42800002DE9F05F39
:10068000894604464FF0000ADFF874B1FB44C0F815
:1006900020A02046E1688847002874D0252806D08D
:1006A000D4E901219047206A401C2062F1E700262E
:1006B0005F462046E16888472028054607DB312D44
:1006C00005D2781910F8200C08B10643F1E7B007FD
:1006D00001D526F00406C4F81CA00027C4F818A011
:1006E0002A2D09D0284602F04AF838B304EB8708CF
:1006F000303DC8F8185019E059F8041B204604EBA7
:1007000087029161E1688847012F054618D1E069A9
:10071000002820DA26F020061DE0D8F8180000EBAB
:10072000800005EB40003038C8F818002046E1682A
:100730008847054602F023F80028EED1012F0AD0A1
:100740002E2D08D12046E16888477F1C0546022FE0
:1007500046F02006C4DBA069002803DA404246F0D8
:100760000106A061F00701D026F010066C2D0BD019
:10077000682D09D04C2D39D06A2D35D0742D35D047
:100780007A2D33D016E038E0E1682F4620468847BE
:10079000B842054609D16C2F26D04FF48060E1683D
:1007A000064320468847054604E06C2F1AD04FF4D4
:1007B000807006430DB3A5F14100192802D82035F9
:1007C00046F400664A462946204626604E46FFF714
:1007D000C7FC80B101280BD0F61D26F0070000F100
:1007E000080956E74020E4E78020D8E70020D6E754
:1007F00006F104094DE7284652E7206ABDE8F09F5C
:100800003428000030B5B0F10A024FEA900E71F1C1
:1008100000034EEA817EB0EB0E0061EB91014FEADE
:10082000101E4EEA017E10EB0E0041EB11114FEA53
:10083000102E4EEA016E10EB0E0041EB11214FEA33
:10084000104E4EEA014E10EB0E0041EB11414018E4
:1008500041F100014FEAD00040EA41704FEAD10176
:1008600010EB80054FEA810444EA907444EB0104E4
:100870006D1944EB0404521BA3414FF0000348BF21
:100880000A3200D530BD401C41F1000130BD2DE9D8
:10089000F0470D4699469246044600F12408016847
:1008A000880604D5E06921F01001216000E00120F4
:1008B000A84201DD471B00E00027A1697A1902EB7D
:1008C0000900081AA0612078C00602D42046FFF76C
:1008D000E6FC002608E0D4E901211AF8060090475A
:1008E000206A401C761C20624E45F4DB2078C0064E
:1008F0000AD52046FFF7D3FC06E0D4E901213020D9
:100900009047206A401C2062381EA7F10107F4DCE2
:1009100007E0D4E9012118F805009047206A401C3F
:100920002062281EA5F10105F3DC2046FFF7CDFC6F
:100930002078000602D50220BDE8F0870120FBE701
:1009400070472DE9FF4F0C461E464FF0FF378BB026
:10095000D2E90001DDF860800A908A46C1F30A55A9
:1009600005B93D46002108464FF00000BAF1000FDE
:1009700000F4400005DA00EB80004FF4400101EA8A
:1009800050004FEA9059B9F1010F00DDB9460A98BD
:1009900050EA4A000ED044F61050A5F2FF35454308
:1009A0002F14B8F1000F1ED07542291E1EDDC9F1AB
:1009B00000021CE0B8F1010F4FF0000001D030211F
:1009C00003E0F24305E02154401CB042FBDB30461B
:1009D0000022002121540B99C1F80880C1E90020B0
:1009E0000FB0BDE8F08FBD1B6D1CDEE74A4600DA94
:1009F000694206A800F0EEFB06AB93E8070003ABE4
:100A000083E8070050460A9900F0A3FC8DE8070030
:100A1000A0F500501F3800900398002D09DD42F228
:100A20001F014A46084403A90390684600F002FFEC
:100A300008E0A0F500504A461F3803A90390684615
:100A400000F00CFF8DE807000004000C03D04FF00D
:100A5000FF30410800E01046B8F1000F03D000223B
:100A6000009215461EE0751E05D4FFF7CBFE30320E
:100A700062556D1EF9D5B3460122084302D000220B
:100A80007F1C04E02078302801D100227F1E002A3C
:100A9000099786D01DE0112D07DAFFF7B3FE30323B
:100AA00062556D1C50EA0102F5D1084302D000984E
:100AB000C8B10EE00021681E05E0235C625C63544F
:100AC0002254401E491C8142F7DBAB46A81B401E46
:100AD0000990002004F80B000B98099AC0F80880D0
:100AE000C0E9002B7CE711264FF0000859E72DE9FB
:100AF000F04F88460446D21D22F0070191B0D1E99B
:100B00000001CDE90A0101F026FE02460B98C00F54
:100B100001D02D2007E02068810701D52B2002E0BD
:100B2000202101EAC000032A099001D0072A05DB31
:100B300003464146204600F00DFB0BE1207880067D
:100B400001D5E06900E00620B8F1650F814606D0C6
:100B5000B8F1660F18D0B8F1670F70D131E00020FE
:100B6000B9F1110F009001DB112301E009F101033C
:100B70000AAA01A90CA8FFF7E4FEDDE90C70002623
:100B800009F10105834647E001204B4600904FF0F4
:100B900000470AAA01A90CA8FFF7D3FEDDE90DB0B2
:100BA0000C995D46002610B909F101000D18B9EB4A
:100BB000050003D4C0F1FF3609F10105A5EB0900DA
:100BC0002BE0B9F1010F01DA4FF001090020B9F172
:100BD000110F0090484601DD112300E003460AAAE8
:100BE00001A90CA8FFF7ADFEDDE90C704D4600260B
:100BF0008346207800070AD4AB4500DA5D4601A899
:100C0000012D04DD411911F8011C302907D04F4591
:100C100002DA17F1040F04DA012082460FE06D1E9C
:100C2000EEE7002F02DCED1B3E4403E0781CA842F7
:100C300000DD7D1CB81B00F1010A4FF00047207851
:100C4000000703D4AA4501DB4FF0FF3A0021B7F1BA
:100C5000004F0DF143088DF8431024D002202B23C0
:100C6000002F01DA7F422D230A21021EA0F101008C
:100C700000DC5FB197FBF1FC97FBF1F201FB1C7C00
:100C800017460CF1300C08F801CDEEE7A8F1010091
:100C900003702188090501D5452100E06521A0F1F7
:100CA000010800F8011C09980FA9A1EB0807FF1D16
:100CB00000B10120411901EBEA70A1693844081A1A
:100CC000401EA0612078C00602D42046FFF7E7FA54
:100CD000099828B1D4E901219047206A401C20627C
:100CE0002078C00622D52046FFF7D9FA1EE0002E54
:100CF00004DBB34502DD01A8805D00E03020D4E9CB
:100D000001219047206A401C2062761CAAF1010054
:100D10005FEA000A0AD100F019FAC0680168405C75
:100D2000D4E901219047206A401C2062281EA5F1C9
:100D30000105DCDC07E0D4E9012118F8010B90473C
:100D4000206A401C2062381EA7F10107F3DC204610
:100D5000FFF7BBFA032011B043E600002DE9F04F86
:100D600004460D46D21D22F0070089B0D0E900925A
:100D700048461746394601F0EEFC0246F80F01D00E
:100D80002D2307E02068810701D52B2302E02021D5
:100D900001EAC0038DF820300BB1012000E00020F3
:100DA000032A824601D0072A04DB2946204600F0A8
:100DB000D1F93DE12078800601D40D2500E0E569F8
:100DC000C7F30A560D2D49DA00214FEA175B084692
:100DD0004FF00000002F00F4400007DA00EB800025
:100DE0004FF4400100EBD07001EA60008115012949
:100DF00001DD4FF0FF3100224FEA850CBCF1180FE6
:100E000006D31346ACF118004FF08052C24003E005
:100E10004FF4801323FA0CF30CF10C0CBCF1200FEF
:100E200004D3ACF1200C09FA0CF001E007FA0CF045
:100E300000294FF0004801DD18B90FE00ED1404500
:100E40000CD319EB02095F4121B9404502D19F4300
:100E500029EA0209BBEB175F00D0761C2088000549
:100E600002D57B48784402E079487844193808AACA
:100E7000302302F80A30037C0AF10101002E0AF146
:100E8000020A53546A4602DC4FF0300101E04FF091
:100E900031014FF001088DF8001002D0A6F2FF36A4
:100EA00003E059EA470100D06A4E002D02DC2178A8
:100EB000090704D54FF002082E218DF80110C44611
:100EC00000210BE0C7F303433F01C35C491C6D1EC7
:100ED00002F80830052908F1010801DA002DF1DCDB
:100EE00000210CE000EB1973491C1B786D1E0829CA
:100EF00002F808304FEA091908F1010801DA002D5B
:100F0000F0DC2178890602D514E0A8F10108E0455B
:100F100005DD02EB080111F8011C3029F5D0B8F10C
:100F2000000F07DD02EB080111F8011C2E2901D189
:100F3000A8F10108002D05DD3E2102F808106D1E04
:100F400008F10108407C002E02F8080008F10108B1
:100F500004DA2D20764202F8080002E02B2002F885
:100F600008000A214FF47A70864208F101080BDB71
:100F700096FBF0F3303302F8083096FBF0F308F1FB
:100F8000010800FB136601E0642E0CDB642096FB75
:100F9000F0F3303302F8083096FBF0F308F1010863
:100FA00000FB136601E00A2E06DB96FBF1F0303001
:100FB00002F8080008F1010896FBF1F001FB10604F
:100FC000303002F80800A16908F1010808EB0502B9
:100FD00002EB0A00081AA0612078C00602D420465D
:100FE000FFF75DF9216A08AE01EB0A00206204E018
:100FF000D4E9012116F8010B9047BAF1010AF7D2A2
:101000002078C00602D52046FFF749F96E4609E070
:1010100016F8010B3E280FD0D4E901219047206A31
:10102000401C2062B8F10108F2D22046FFF74DF9CA
:1010300009B00320BDE8F08F206A2844206203E055
:10104000D4E90121302090476D1EEBD3F8E7000072
:101050008020000002FCFFFF10B5436913B1AFF31D
:10106000008001E0FFF754F9012010BD127800F173
:1010700024010A7000224A700122EDE711684FF046
:10108000FF32E9E710B5436913B1AFF3008001E027
:10109000FFF7D6F9012010BD128800F124018284E7
:1010A0000022C2840122EDE711684FF0FF32E9E728
:1010B00070B516460C46054600F040F8036893F8F4
:1010C0000101012806D0FF2C0FD8185D68B101205E
:1010D0002C7070BDD3F807013246214603F2071386
:1010E00003442846BDE8704018474FF0FF3070BDFC
:1010F000754600F0E3F8AE4605006946534620F019
:101100000700854618B020B5FFF7A2F8BDE82040DB
:101110004FF000064FF000074FF000084FF0000BB3
:1011200021F00701AC46ACE8C009ACE8C009ACE866
:10113000C009ACE8C0098D467047000010B500F04A
:1011400005F8001D10BD00BF2917000000487047BA
:10115000440000202DE9F0411F46044603260168A3
:10116000072A01F4006004DB08B116A505E016A506
:1011700003E008B115A500E015A521F010002060DE
:10118000A069C01EA0610FB1401EA0612046FFF7FC
:1011900086F84FB1D4E9012138469047206A401CB7
:1011A0002062C01C206206E0206AFAE7D4E901212F
:1011B00015F8010B9047761EF8D22046FFF785F808
:1011C000BDE8F0814E414E006E616E00494E460012
:1011D000696E66002DE9F047814616468AB03348AD
:1011E00078440DC88DE80D0030487844801C03AC6D
:1011F0000DC884E80D0041F69B300844372190FB70
:10120000F1F290FBF1F5A5F1800501FB12041B3C06
:1012100002D56442012000E00020DFF890A0804663
:101220000027FA44AAF1BE0A0DE0E00709D03246D1
:10123000684607EB47010AEB810100F00FFB8DE8E0
:10124000070064107F1C002CEFD1184F7F44AC3F87
:1012500018E0E80714D007EB04100DF1180A90E825
:101260000E008AE80E00C068F04201D1981908907B
:10127000324606A903A800F0F1FA03AB83E80700A1
:101280006D10641C002DE4D132466946B8F1000FA0
:1012900003A802D000F0CEFA01E000F0DFFAC9E9BD
:1012A0000001C9F808200AB0BDE8F087941D0000CD
:1012B0000446AFF300802046FEF7B5FF00487047B4
:1012C000240000204FF0013C50F8042B51F8043B5F
:1012D0009A4221D1A2EB0C03934313EACC1317D10A
:1012E00050F8042B51F8043B9A4215D1A2EB0C03A1
:1012F000934313EACC130BD150F8042B51F8043B61
:101300009A4209D1A2EB0C03934313EACC13DBD02E
:101310004FF00000704700BFD01A01BAB1FA81F156
:1013200001F0180122FA01F0CB40C1F12001DBB23B
:10133000C0B2C01A2CFA01F3D11A914311EAC311B9
:10134000E6D1704701491820ABBEFEE72600020037
:1013500070475FEA400C08BF91F0000F4FEA8C2302
:101360004FEAC12243EA51514FEA1C5018BF00F521
:10137000F0404FEA300018BF41F000415FEA6C5C7A
:1013800000F02980BCF1FF3F08BF40F0804070476B
:10139000130C06BF12044FF0100C4FF0000C130E8C
:1013A00004BF12020CF1080C130F04BF12010CF160
:1013B000040C930F04BF92000CF1020CD30F04BF76
:1013C00052000CF1010C11464FF00002A0F11F0079
:1013D000A0EB0C00704711F0004F08BF704731F0D0
:1013E00000413FF4D5AF0B0C06BF09044FF0100CC1
:1013F0004FF0000C0B0E04BF09020CF1080C0B0F90
:1014000004BF09010CF1040C8B0F04BF89000CF11F
:10141000020CCB0F04BF49000CF1010CCCF12003EE
:10142000A0EB0C0022FA03F302FA0CF241EA0301EA
:1014300000F10100704720F07F4C80EA030023F0A8
:101440007F47ACEB070303F57C5300F0004003F14A
:10145000FF032DE980494FEA154B09B44FEA1443C5
:1014600025EA0B4E24EA03480FF2042606EB132765
:1014700049083E785FEA320203FB0667C7F50007BA
:1014800007FB06F64FEA54374FEAD64606F1020646
:1014900007FB066CCCF1005C4FEA1C472CEA074CBA
:1014A00007FB06F40CFB06F504EB15464FEA96160F
:1014B00034BF00204FF000404FEAD13706FB07FC55
:1014C0004FEA1C4C0CFB0BF7D21B03FB0CF761EB38
:1014D00007010CFB0EF7B0EB074072EB17420CFB59
:1014E00008F734BFA2EB0742B2EB074261EB1741AA
:1014F0004FEA0C444FEA910706FB07FC4FEA1C4CED
:101500000CFB0BF7B0EBC74072EB573203FB0CF749
:1015100034BFA2EBC742B2EBC74261EB57310CFBC1
:101520000EF7B0EBC70072EB57720CFB08F734BF35
:10153000A2EBC702B2EBC70261EB5771039F4FEA00
:10154000816141EA921104EBCC044FEAD1374FEAB2
:10155000826206FB07FC42EA90124FEA80604FEA83
:101560001C4C0CFB0BF7D21B03FB0CF761EB0701C8
:101570000CFB0EF7B0EB074072EB17420CFB08F7C1
:1015800034BFA2EB0742B2EB074261EB17414FEACF
:101590008C554FEA910704EB9C2406FB07FC4FEAAD
:1015A0001C4C0CFB0BF7B0EBC74072EB573203FB44
:1015B0000CF734BFA2EBC742B2EBC74261EB573125
:1015C0000CFB0EF7B0EBC70072EB57720CFB08F781
:1015D00034BFA2EBC702B2EBC70261EB577115EB48
:1015E0004C254FEA816141EA92114FEA82624FEA4B
:1015F000D13742EA901206FB07FC44F100044FEA9F
:1016000080604FEA1C4C0CFB0BF7D21B03FB0CF762
:1016100061EB07010CFB0EF7B0EB074072EB1742D2
:101620000CFB08F734BFA2EB0742B2EB074261EBB9
:10163000174115EB1C154FEA813141EA92414FEAFF
:10164000823242EA90424FEA80304FEA0C7644F10F
:10165000000448EA03434EEA0B484FF0000EB2EB99
:10166000080C71EB030724BF624639464EEB0E0EA1
:101670004FF0000B0018524149414BEB0B0BB2EB02
:10168000080C71EB03077BF1000B24BF624639465F
:101690004EEB0E0E4FF0000B0018524149414BEB40
:1016A0000B0BB2EB080C71EB03077BF1000B24BFB3
:1016B000624639464EEB0E0E51EA020718BF46F05D
:1016C000010616EB0E7655F1000254F1000103D528
:1016D000BDE88901BDE80088BDE88901BDE8004892
:1016E000B619524141EB0101A3F10103704780801B
:1016F0007F7E7D7C7B7A797877767675747372716C
:1017000071706F6E6E6D6C6C6B6A6A696868676623
:1017100066656464636362616160605F5F5E5E5DB5
:101720005D5C5C5B5B5A5A59595858575756565529
:1017300055555454535352525251515050504F4F8B
:101740004F4E4E4D4D4D4C4C4C4B4B4B4A4A4A49DB
:10175000494948484847474747464646454545441E
:101760004444444343434342424242414141002BAB
:1017700026D4770021D01CB54FEA370703B44FF0C9
:1017800010004FF010014FF000000FBCBDE81040FA
:101790000BF1010BBBF1010F08BF5FEA170722BF76
:1017A00012F1010211F101014FF0004143F1000378
:1017B00000F0004043EA00007047F9D35708DAE729
:1017C00046EA064613F1400F4FEA16461FDD13F1B5
:1017D000200FDFBF16430A46002120335B42C8D0EA
:1017E000C3F1200746EA064602FA07F74FEA164613
:1017F00046EA0706C3F1200722FA03F201FA07F7C7
:1018000021FA03F14FF0000342EA0702B1E746EA8A
:10181000020646EA06464FEA164646EA0106BCBFFD
:1018200046EA0646360C4FF000034FF000024FF038
:1018300000019EE72DE9C048934630B491E8380096
:1018400007C831EA400C48BF34EA430C03D5FFF720
:10185000F2FDFFF78CFFF0BCBDE800882DE9C04821
:10186000934630B491E8380007C810F0804F08BFA5
:1018700013F0804F03D100F005F8FFF778FFF0BCBC
:10188000BDE8008820F07F4780EA030023F07F4C0A
:1018900007EB0C03A3F57C5300F00040A3F1FE031B
:1018A00092F0000F00F0B38095F0000F00F0778009
:1018B0002DE901494FEA11404FEA144621EA004858
:1018C00000FB06FC24EA064708FB06F607FB08F8BF
:1018D00000FB07F718EB06484CEB164C4FEA124B8F
:1018E00018EB07484FEA15464CEB174022EA0B4E1F
:1018F0000BFB06FC25EA06470EFB06F607FB0EFE71
:101900000BFB07F71EEB064E4CEB164C4FF0000698
:101910001EEB074E4CEB174B18EB0B0840F1000089
:1019200018EB0E0B58EB000840F100008F1A4FF037
:1019300000013CBFC943661B14BFB5EB040C00217A
:101940003CBFC943F61B4FEA17444EEA8E0E27EA06
:1019500004454FEA1C4704FB07622CEA074C05FBD1
:1019600007F70CFB05F604FB0CFC16EB074642EBF5
:10197000174216EB0C4642EB1C421BEB060658EBDB
:101980000202414146EA9E0601D5BDE80189B61929
:10199000524141EB0101A3F10103BDE801894FEA86
:1019A00014454FEA114724EA054621EA074C05FB96
:1019B00007F406FB07F70CFB06F105FB0CFC11EB2B
:1019C000074144EB17444FEA124711EB0C4144EB3B
:1019D0001C4422EA074C05FB07F206FB07F70CFB49
:1019E00006F605FB0CFC16EB074642EB174216EB1E
:1019F0000C4642EB1C456A1854F1000148BF704781
:101A0000B619524141EB0101A3F10103704795F072
:101A1000000F37D04FEA11424FEA144721EA02463D
:101A200024EA074C02FB07F106FB07F70CFB06F460
:101A300002FB0CFC14EB074441EB17414FEA15473E
:101A400014EB0C4441EB1C4125EA074C02FB07F563
:101A500006FB07F70CFB06F602FB0CFC16EB074631
:101A600045EB174516EB0C4645EB1C42121951F19C
:101A7000000148BF7047B619524141EB0101A3F183
:101A8000010370474FEA14454FEA114724EA05461F
:101A900021EA074C05FB07F106FB07F70CFB06F2F2
:101AA0004FF0000605FB0CFC12EB074241EB17411F
:101AB00012EB0C4251EB1C4148BF7047921841EBAE
:101AC0000101A3F101037047FEE7000038B50121D1
:101AD000042000F011FB8020ADF8000010208DF8EC
:101AE000030003208DF80200044C6946204600F0F4
:101AF000C4F88021204600F01AF938BD00080140E2
:101B000008B58020ADF8000048208DF80300694634
:101B1000014800F0B2F808BD0008014008B5802077
:101B2000ADF8000010208DF8030003208DF80200AE
:101B30006946024800F0A1F808BD00000008014015
:101B40002DE9F04100260024104F8021384600F096
:101B5000E7F80028F9D0282000F07FF80025802140
:101B6000384600F0DDF8012800D1012580213846F3
:101B700000F0D6F80128F9D07006060E2E43641C3A
:101B8000E4B2082CE1D33046BDE8F0810008014002
:101B900070B5044600F032F8174D8021284600F059
:101BA000BFF808B1002070BDFFF7CAFF2070FFF733
:101BB000C7FF6070FFF7C4FFA070FFF7C1FFE070C0
:101BC000FFF7BEFF2071322000F047F8FFF7A6FFB5
:101BD00001228021284600F0ACF820786178E27874
:101BE0000844A178114408442179884201D1012098
:101BF00070BD002070BD00000008014010B5FFF767
:101C00008DFF0E4C01228021204600F092F8002228
:101C10008021204600F08DF8142000F012F80122F7
:101C20008021204600F085F81E2000F016F8FFF70E
:101C300067FFBDE81040AA2000F00FB8000801407F
:101C4000704700B502464FF47A7302E0184600F080
:101C500004F8521E501CF9D100BD00EBC000C100B9
:101C60004FF0E0204161002181610521016101699E
:101C7000C903FCD50421016170472DE9F041002220
:101C8000CC7804F00F03E40601D58C7823430C785C
:101C90004FF00F0714F0FF0F4FF0010C1CD0056838
:101CA0000CFA02F40E882640A64211D1960007FADB
:101CB00006F825EA080503FA06F848EA0505CE788D
:101CC000282E02D0482E02D002E0446100E00461D8
:101CD000521C082AE4D305600A88FF2A1ED94568E9
:101CE000002202F108060CFA06F40E882640A642ED
:101CF00010D1960007FA06F825EA080503FA06F857
:101D000048EA0505CE78282E00D14461CE78482EC9
:101D100000D10461521C082AE3D34560BDE8F0817C
:101D20000246002092680A4200D0012070470161FB
:101D30007047002A01D00161704741617047FEE79A
:101D4000FEE7704770B50F23C27801260178002A9C
:101D50001ED0144A126802F4E062C2F5E062120A70
:101D6000C2F10404D3404578A54082781A402A4342
:101D7000120101F1E02181F80024007800F01F0138
:101D80008E404009800000F1E020C0F8006170BD85
:101D900001F01F0086404809800000F1E020C0F8F3
:101DA000806170BD0CED00E0024908430249086003
:101DB000704700000000FA050CED00E070B500254A
:101DC0000021284600F0F6F80024002000F074F905
:101DD000641CE4B2802CF8D36D1CEDB2082DEFD357
:101DE00070BD0000F8B50121082000F085F914202D
:101DF0008DF8030003208DF802004FF48074ADF8D5
:101E000000400B4E69463046FFF737FF6500ADF8DE
:101E1000005069463046FFF730FF01222146304628
:101E2000FFF787FF012229463046FFF782FFF8BD02
:101E3000000C01402DE9F04707460024134D4FF0F8
:101E400080094FF40078AE1529FA04F23A40414671
:101E50002846FFF76EFF012231462846FFF769FF4B
:101E6000002231462846FFF764FF641CE4B2082CC8
:101E7000EAD3012231462846FFF75BFF3146284668
:101E8000BDE8F0470022FFF754BF0000000C0140FE
:101E900070B501220B4D540221462846FFF749FF39
:101EA0000122160231462846FFF743FF0022214651
:101EB0002846FFF73EFF31462846BDE87040002225
:101EC000FFF737BF000C014070B50A4D4FF40074A6
:101ED000002221462846FFF72CFF01221102284646
:101EE000FFF727FF21462846BDE870400122FFF793
:101EF00020BF0000000C014010B500214FF47A72A1
:101F00000020401C9042FCD3491C9142F8D3FFF7BB
:101F100069FFAE2000F0BFF8D52000F0BCF88020AB
:101F200000F0B9F8A82000F0B6F83F2000F0B3F8B0
:101F3000D32000F0B0F8002000F0ADF8402000F011
:101F4000AAF8A12000F0A7F8C82000F0A4F8DA2031
:101F500000F0A1F8122000F09EF8812000F09BF81C
:101F6000CF2000F098F8D92000F095F8F12000F08B
:101F700092F8DB2000F08FF8302000F08CF8A420DD
:101F800000F089F8A62000F086F88D2000F083F894
:101F9000142000F080F8AF2000F07DF8BDE810407C
:101FA000FFF70CBF0346012000E05843491E4A1CBE
:101FB000FBD1704710B50C4640F0B00000F06BF854
:101FC000102040EA141000F066F804F00F00BDE89D
:101FD000104000F060B800002DE9F0411546491EA0
:101FE000461ECF007006F9B2000EFFF7E3FF002493
:101FF0000E48203D00EB0515285D00F05DF8641CDF
:10200000E4B2082CF8D3012000EB4600F9B2C0B2CC
:10201000FFF7D0FF00242819007A00F04DF8641C67
:10202000E4B2082CF7D3BDE8F0810000A428000832
:102030002DE9F04781460F4690461E4600240A25AA
:1020400012E0311B491E0A20FFF7ACFFB8FBF0F28B
:10205000B2FBF5F005FB10223819C1B23032484608
:10206000FFF7BAFF641CE4B2B442EAD3BDE8F087DC
:102070002DE9F04107460D461646002406E02819D2
:10208000C1B23846FFF7A8FF641CE4B2325D002AF3
:10209000F5D1BDE8F08110B50446FFF7F9FE7820D0
:1020A000FFF7C8FE0020FFF7C5FE2046FFF7C2FE7F
:1020B000BDE81040FFF708BF10B50446FFF7E8FE83
:1020C0007820FFF7B7FE4020FFF7B4FE2046FFF769
:1020D000B1FEBDE81040FFF7F7BE7047054A002982
:1020E00003D0D1690143D1617047D1698143D16186
:1020F0007047000000100240054A002903D0916992
:10210000014391617047916981439161704700007B
:102110000010024010B5264A516801F00C01254B11
:10212000002927D0042927D0082927D00360516827
:1021300001F0F0010909204B5C5C0168E14041605D
:10214000546804F4E064240A1C5D21FA04F48460F9
:10215000546804F46054E40A1B5DD940C1605268BD
:1021600002F44042920B144B1B1F9A5CB1FBF2F13C
:10217000016110BD0360DAE70360D8E7516801F43C
:102180007011536803F48033022404EB914133B19E
:1021900053689B0307D5094B59430160C7E7074BB9
:1021A00059430160C3E7034B59430160BFE7000097
:1021B0000010024000127A000400002000093D00D7
:1021C0007047000030B587B001218803FFF794FF06
:1021D00001210420FFF790FF18208DF81B004FF419
:1021E0000070ADF8180003248DF81A40204D06A9A0
:1021F0002846FFF742FD48218DF81B102915ADF840
:1022000018108DF81A4006A92846FFF736FD4FF43E
:10221000165002900020ADF814000C21ADF81210F9
:10222000ADF81000ADF80E00ADF80C00114C02A98D
:10223000204600F029FA012240F22551204600F004
:1022400008FA4FF4A060FFF7AFFD25218DF80410C8
:1022500001218DF807108DF805108DF8061001A8E2
:10226000FFF770FD0121204600F0E0F907B030BD16
:1022700000080140003801400FB400B599B01BAA16
:1022800068461A99FDF7F6FF684600F013F819B092
:102290005DF814FB10B5064C0146204600F056FAD6
:1022A0008021204600F0CEF90028F9D010BD0000B2
:1022B0000038014070B50546002403E0FFF7EAFF4F
:1022C000641CE4B2285D0028F8D170BDAFF3008033
:1022D0000CB50022019200922748016841F4803138
:1022E00001604FF4A063016801F40031009101998D
:1022F000491C0191009911B901999942F3D10168E2
:10230000890302D50121009100E000920099012982
:1023100030D11A490A6842F010020A600A6822F0B5
:1023200003020A600A6842F002020A6041684160E2
:1023300041684160416841F480614160416821F435
:102340007C114160416841F4E8114160016841F04D
:102350008071016001688901FCD5416821F00301A9
:102360004160416841F0020141604168C1F381016F
:102370000229FAD10CBD00000010024000200240EA
:102380007047000010B50F48016841F0010101607D
:1023900041680D4A1140416001680C4A11400160DA
:1023A000016821F480210160416821F4FE0141604F
:1023B0004FF41F018160FFF789FF05494FF000606E
:1023C000086010BD001002400000FFF8FFFFF6FE9D
:1023D00008ED00E070B501218D07284600F03EF8B9
:1023E000012810D1084C09A0E278A178FFF744FF3A
:1023F000627821780BA0FFF73FFF2846BDE87040C8
:10240000012100F01CB870BD1F00002054656D70E4
:10241000657261747565723A25642E256460430A9D
:102420000000000048756D69646974793A25642E6E
:10243000256425250A000000C94301827047C9436D
:1024400001827047002904D0018841F00101018018
:102450007047018821F00101018070470246002089
:10246000138A0B4092890A40002B02D0002A00D028
:1024700001207047002A03D082890A438281704775
:1024800082898A4382817047018921F00701018195
:102490007047000030B502881B4C1C4DA0420DD087
:1024A000A8420BD0B0F1804F08D0194B984205D00C
:1024B000184B984202D0184B984203D122F0700377
:1024C0004A881A43154B984206D0154B984203D0C0
:1024D00022F44073CA881A4302808A8882850A8857
:1024E0000285A0420AD0A84208D00E4A904205D0E8
:1024F0000D4A904202D00D4A904201D1097A0186DC
:102500000121818230BD0000002C014000340140D7
:102510000004004000080040000C00400010004093
:1025200000140040004001400044014000480140C8
:102530001FB501210846FFF7D1FD4FF0804420462A
:10254000FFF7A2FF0021ADF80A10ADF8061042F225
:102550000F72ADF8082041F61F40ADF804008DF869
:102560000C1001A92046FFF795FF01212046FFF737
:1025700063FF012211462046FFF77CFF4FF4A06065
:10258000FFF712FC1C208DF8000001218DF80310CC
:1025900002208DF801008DF802106846FFF7D2FB8B
:1025A00001212046FFF74EFF1FBD000070B5194DF9
:1025B00040F225563146284600F044F8002828D03D
:1025C000284600F0BFF8C2B2134C00210120237846
:1025D00023B1012B07D0022B11D014E0FF2A12D116
:1025E000207061700FE00C486378C01DC2545B1C02
:1025F000DAB26270042A06D30220207003E0FE2AB9
:1026000001D12170A07031462846BDE8704000F02D
:1026100005B870BD003801401400002040F66A1271
:102620000A0A01219140C94301807047002904D062
:10263000818941F4005181817047818921F40051E1
:10264000818170470246002012880A4200D0012092
:10265000704710B540F66A13C1F3421301F01F042E
:102660000121A140012B07D0022B07D014303AB131
:1026700002680A43026010BD0C30F8E71030F6E73C
:1026800002688A43026010BD30B585B004460D462D
:10269000208A4CF6FF710840E98801432182A08915
:1026A0004EF6F3110840A9882A8911436A8902432A
:1026B0001143A181A08A4FF6FF410840A989014337
:1026C000A1826846FFF726FD1D48844201D1039888
:1026D00000E00298A189090408D500EBC00101EBD4
:1026E000001029684900B0FBF1F007E000EBC001E1
:1026F00001EB001029688900B0FBF1F06422B0FB07
:10270000F2F109010B096FF018056B4300EB830030
:10271000A3891D044FF0320307D503EBC000B0FBC3
:10272000F2F000F00700084306E003EB0010B0FBF6
:10273000F2F000F00F000843208105B030BD00002A
:10274000003801408088C0F308007047C1F30801D9
:1027500081807047FEE7490050EAC12018BF04207D
:102760004A0D18BF40F0010040F2FF72B2EB515F1A
:1027700008BF40F00200012808BF0520704730382C
:102780000A2801D20120704700207047FFF7B4FBF0
:10279000FFF718FDFFF79AF9FFF7CAFE012120A203
:1027A0000846FFF765FC22A201210320FFF760FC29
:1027B0002248FFF7EDF90128FAD1204C022301212C
:1027C000A2781846FFF734FC1DA203210220FFF770
:1027D0004FFCE278012304210220FFF729FC60224C
:1027E00005210220FFF7F8FB432206210220FFF714
:1027F000F3FB2278022301210420FFF719FC10A229
:1028000003210420FFF734FC0421627802230846E8
:10281000FFF70EFC252205210420FFF7DDFBC7E7AB
:1028200054656D70657261747572653A00000000E0
:1028300048756D69646974793A0000001F000020D2
:102840002E00000010B500290AD00878002807D013
:1028500005487844FEF736FD002801D0002010BD61
:102860000248784410BD00005E07000056070000D3
:1028700010B500290AD00878002807D00548784408
:10288000FEF720FD002801D0002010BD024878444A
:1028900010BD00004E07000046070000FEF727B9F4
:1028A000FEF75CBA0000000000000000000000001D
:1028B00000000000000000F80000000000000033ED
:1028C0003000000000100C06100C06000000000094
:1028D0000000000040C07840C0784000043F04047D
:1028E0003F040400007088FC08300000001820FF3E
:1028F000211E0000F008F000E018000000211C0379
:102900001E211E0000F00888700000001E212324F4
:102910001927211010160E00000000000000000012
:1029200000000000000000E01804020000000007A2
:102930001820400000020418E000000000402018A9
:1029400007000000404080F0804040000202010F7C
:1029500001020200000000F0000000000101011F60
:1029600001010100000000000000000080B07000C4
:102970000000000000000000000000000001010154
:1029800001010101000000000000000000303000E3
:1029900000000000000000008060180400601806BD
:1029A0000100000000E010080810E000000F1020F7
:1029B00020100F00001010F8000000000020203F41
:1029C00020200000007008080888700000302824CB
:1029D000222130000030088888483000001820206C
:1029E00020110E000000C02010F800000007042491
:1029F000243F240000F808888808080000192120D6
:102A000020110E0000E0108888180000000F11202F
:102A100020110E0000380808C83808000000003FE8
:102A2000000000000070880808887000001C222147
:102A300021221C0000E010080810E00000003122F4
:102A400022110F00000000C0C00000000000003094
:102A500030000000000000800000000000008060E6
:102A60000000000000008040201008000001020467
:102A7000081020004040404040404000040404044E
:102A8000040404000008102040800000002010080A
:102A900004020100007048080808F000000000303F
:102AA00036010000C030C828E810E00007182724CD
:102AB00023140B000000C038E0000000203C23027B
:102AC0000227382008F8888888700000203F2020DE
:102AD00020110E00C0300808080838000718202010
:102AE0002010080008F808080810E000203F202007
:102AF00020100F0008F88888E8081000203F2020E8
:102B00002320180008F88888E8081000203F2000DB
:102B100003000000C0300808083800000718202013
:102B2000221E020008F808000008F808203F2101D2
:102B300001213F20000808F8080800000020203F7D
:102B40002020000000000808F8080800C0808080ED
:102B50007F00000008F888C028180800203F2001E6
:102B60002638200008F8080000000000203F202040
:102B70002020300008F8F800F8F80800203F003F57
:102B8000003F200008F830C00008F808203F20006F
:102B900007183F00E01008080810E0000F10202080
:102BA00020100F0008F808080808F000203F210155
:102BB00001010000E01008080810E0000F182424AC
:102BC00038504F0008F8888888887000203F20001F
:102BD000030C3020007088080808380000382021D5
:102BE00021221C00180808F8080818000000203FDF
:102BF0002000000008F808000008F808001F202046
:102C000020201F000878880000C838080000073816
:102C10000E010000F80800F80008F800033C070067
:102C2000073C0300081868808068180820302C03CF
:102C3000032C30200838C800C83808000000203FA6
:102C40002000000010080808C83808002038262195
:102C500020201800000000FE020202000000007F99
:102C600040404000000C30C00000000000000001A7
:102C70000638C00000020202FE0000000040404092
:102C80007F000000000004020202040000000000B7
:102C90000000000000000000000000008080808034
:102CA000808080800002020400000000000000001C
:102CB00000000000000080808080000000192422B5
:102CC00022223F2008F8008080000000003F1120F1
:102CD00020110E000000008080800000000E1120F6
:102CE00020201100000000808088F800000E1120D4
:102CF00020103F200000808080800000001F2222E2
:102D000022221300008080F0888888180020203F4D
:102D1000202000000000808080808000006B949460
:102D20009493600008F8008080800000203F21001C
:102D300000203F2000809898000000000020203FE5
:102D400020200000000000809898000000C08080D3
:102D5000807F000008F8000080808000203F24026F
:102D60002D302000000808F8000000000020203F5F
:102D7000202000008080808080808000203F200014
:102D80003F20003F8080008080800000203F2100A5
:102D900000203F200000808080800000001F202055
:102DA00020201F00808000808000000080FFA12084
:102DB00020110E000000008080808000000E112095
:102DC00020A0FF80808080008080800020203F2124
:102DD00020000100000080808080800000332424D7
:102DE00024241900008080E0808000000000001F83
:102DF000202000008080000000808000001F202034
:102E000020103F20808080000080808000010E30F4
:102E10000806010080800080008080800F300C0355
:102E20000C300F0000808000808080000020312E58
:102E30000E312000808080000080808080818E7034
:102E40001806010000808080808080000021302CE6
:102E50002221300000000000807C020200000000FF
:102E6000003F404000000000FF00000000000000A4
:102E7000FF0000000002027C800000000040403F94
:102E8000000000000006010102020404000000002E
:102E9000000000000000000000000000303132336C
:102EA000343536373839414243444546403058007E
:102EB00030313233343536373839616263646566B0
:102EC000403078000400000800000000000000020C
:102ED0000001000010303132333435363738396173
:102EE000626364656678700030313233343536376A
:102EF00038394142434445465850000002400000E2
:102F0000000000A00000000005400000000000C814
:102F1000000000000C4000000000409C0000000089
:102F2000194000000020BCBE00000000344000003A
:102F3000BFC91B8E00000004B5400000504BCFD02D
:102F40006607E2CF010000006C4100003E8251AAFA
:102F5000DFEEA73401000000D9420000DCB5A0E29A
:102F60003A301F97FFFFFFFFB4450000FD25A0C8C2
:102F7000E9A3C14FFFFFFFFFFF3F000000000080FB
:102F800000000000FF3F0000000000800000000083
:102F9000DC300008000000202400000028010008A8
:102FA00000310008240000206406000044010008ED
:102FB0001C00000043000000F8FFFFFF0C000000B1
:102FC0000E0000000F0000002E00000010010000A5
:102FD00043000000F8FFFFFF0040404040404040F9
:102FE00040404141414141404040404040404040DC
:102FF0004040404040404040400502020202020280
:1030000002020202020202020220202020202020CE
:1030100020202002020202020202909090909090E2
:1030200010101010101010101010101010101010A0
:103030001010101002020202020288888888888814
:103040000808080808080808080808080808080800
:103050000808080802020202400000000000000008
:103060000000000000000000000000000000000060
:103070000000000000000000000000000000000050
:103080000000000000000000000000000000000040
:103090000000000000000000000000000000000030
:1030A0000000000000000000000000000000000020
:1030B0000000000000000000000000000000000010
:1030C0000000000000000000000000000000000000
:1030D00000000000000000000000000002040608DC
:1030E00000000000010203040102030406070809AE
:1030F00000000000000000000000000000000000D0
:0400000508000235B8
:00000001FF
